:020000040800F2
:1000000028BD0220390300084703000849030008FF
:100010004B0300084D0300084F03000800000000D8
:100020000000000000000000000000005103000874
:1000300053030008000000005503000857030008A0
:100040005903000859030008590300085903000820
:100050005903000859030008590300085903000810
:100060005903000859030008590300085903000800
:1000700059030008590300085903000859030008F0
:1000800059030008590300085903000859030008E0
:1000900059030008590300085903000859030008D0
:1000A00059030008590300085903000859030008C0
:1000B00059030008319000085D90000859030008BA
:1000C00059030008590300085903000859030008A0
:1000D00059030008F19D000859030008499E0008D3
:1000E0005903000859030008590300085903000880
:1000F0005903000859030008590300085903000870
:1001000059030008DD7C000891900008590300089D
:1001100059030008590300085903000821910008F9
:10012000590300085903000859030008590300083F
:10013000590300085903000859030008590300082F
:10014000590300085903000859030008590300081F
:10015000590300085903000859030008590300080F
:1001600059030008590300085903000859030008FF
:100170005903000859030008590300080000000053
:1001800059030008590300085903000859030008DF
:1001900059030008590300085903000859030008CF
:1001A00059030008590300085903000800F002F839
:1001B00000F0B2F80AA090E8000C82448344AAF14F
:1001C0000107DA4501D100F0A7F8AFF2090EBAE84D
:1001D0000F0013F0010F18BFFB1A43F0010318477B
:1001E000285F0100485F01000A444FF0000C10F83E
:1001F000013B13F0070408BF10F8014B1D1108BFA5
:1002000010F8015B641E05D010F8016B641E01F844
:10021000016BF9D113F0080F1EBF10F8014BAD1C94
:100220000C1B09D16D1E58BF01F801CBFAD505E0B2
:1002300014F8016B01F8016B6D1EF9D59142D6D30C
:10024000704700000023002400250026103A28BF34
:1002500078C1FBD8520728BF30C148BF0B60704738
:100260006E2900F0FA84702900F06182662910F08E
:100270000F87652910F00C87672910F0098761291D
:1002800010F0088703681B0A28BF41F08001692924
:1002900000F09481642900F09181752900F08E812D
:1002A0006F2900F0B585782900F02D82E92900F04A
:1002B000C181E42900F0BE81F52900F0BB81EF295E
:1002C00000F0B285F82900F02C820368DB0928BF12
:1002D00041F08001632900F0FC84732900F001855E
:1002E000E32901F09F81F32901F0A48100207047E8
:1002F0001FB510F0C8FE01F0F7F90400002000213E
:1003000010F014FA401C60600020002110F0F8F991
:10031000E0601FBD10B510BD01F0B8F91146FFF740
:10032000E7FF0EF09BFB01F091FA03B4FFF7F2FF39
:1003300003BC09F0B3FF00000B48016841F47001F1
:1003400001600A480047FEE7FEE7FEE7FEE7FEE73A
:10035000FEE7FEE7FEE7FEE7FEE70000044805498A
:10036000034A054B7047000088ED00E0AD0100082E
:1003700028B5022028BD022028B50220704753EA84
:10038000020C00F069802DE9F04B4FF00006002BC5
:100390001FBFB3FA83F503FA05F424FA05F65E40AD
:1003A00012BF1643B2FA82F502FA05F4C5F1200530
:1003B0001EBF22FA05FC44EA0C04203556EA044C20
:1003C0004FEA144418BF641C4FF000084FF00009B6
:1003D000904271EB030C39D3002919BFB1FA81F7B0
:1003E00001FA07F6B0FA80F700FA07F6C7F120071E
:1003F0001EBF20FA07FC46EA0C062037B6FBF4FCC9
:10040000A7EB0507103F07F01F0BCBF120060CFAF6
:100410000BFB2CFA06F644BFB3460026202FA4BFE0
:100420005E464FF0000B5BEA060C08BF4FF0010B75
:1004300019EB0B09ABFB027C48EB0608C01B06FB63
:1004400002CC0BFB03CC71EB0C01C1E70B4602465F
:1004500041464846BDE8F08B13B54FF000004FF021
:100460000001AFF30080BDE81C40704710B54C1090
:1004700084EA530404D54042C1F1000138BF491E4B
:100480001B4204D55242C3F1000338BF5B1EFFF785
:1004900076FF14F0804F04D04042C1F1000138BF14
:1004A000491E14F0004F04D05242C3F1000338BF7C
:1004B0005B1E10BD1CB50C46064B7B446946009084
:1004C000204600F0E4FB04460020694600F0F2FB01
:1004D00020461CBDF70700000FB4044910B503AA5D
:1004E000029800F003FC10BC5DF814FB080000202B
:1004F0000FB41CB5084B06AA7B44694600900598CA
:1005000000F0C5FB04460020694600F0D3FB2046FE
:100510001CBC5DF814FB0000B907000070B5044670
:1005200085690068C10601D5302600E02026C00795
:1005300007D070BDD4E9012130469047206A401CA5
:1005400020626D1EF6D570BD70B5044685690078D1
:10055000C00707D170BDD4E9012120209047206A4F
:10056000401C20626D1EF6D570BD70B50C46054668
:10057000012A05D02878800600D5EA69002302E028
:10058000012305E05B1C934202D2E05C0028F9D114
:10059000A869E618C01AA861286A18442862284683
:1005A000FFF7BCFF04E0D5E9012114F8010B9047E7
:1005B000B442F8D32846FFF7C7FF70BD2DE9F041DC
:1005C0000646002410687529314616A510D000F0A3
:1005D000D9FA002802DA404213A507E031688A07F9
:1005E00001D512A502E0490704D511A5012401E0B7
:1005F00000F0D1FA00210A2206F1240709E0B0FB3D
:10060000F2FCB0FBF2F302FB1C00303078541846C9
:10061000491C0028F3D123462A463046BDE8F04164
:1006200000F0C2BA000000002D0000002B00000006
:10063000200000002DE9F0418046D21D22F0070283
:100640000025D2E90002F52915A614D0011E72F189
:10065000000106DA0023D0EB030063EB020211A6CF
:1006600008E0D8F800108B0701D50FA602E0490773
:1006700001D50EA601251146002408F1240704E047
:1006800000F030FA30323A55641C50EA0102F7D1DA
:100690002B46324621464046BDE8F04100F084BA80
:1006A000000000002D0000002B00000020000000D2
:1006B000F0B40D460188090502D5214C7C4402E0C6
:1006C0001F4C7C440E34002100F1240608E002F0A7
:1006D0000F071209E75D42EA03721B097754491CB0
:1006E00052EA0307F3D102780023120704D5702DD4
:1006F00006D009B1022311342246F0BC00F054BAEE
:1007000001231034F8E770B504460D462146106801
:1007100000F041FA024629462046BDE87040002319
:10072000C6E7D21D22F00703D3E90023C0E7036820
:10073000126843F0200303600823C3610023B7E776
:100740004C5601002DE9F05F894604464FF0000A3F
:10075000DFF874B1FB44C0F820A02046E168884768
:10076000002874D0252806D0D4E901219047206ABA
:10077000401C2062F1E700265F462046E16888477A
:100780002028054607DB312D05D2781910F8200CFA
:1007900008B10643F1E7B00701D526F00406C4F816
:1007A0001CA00027C4F818A02A2D09D0284609F05B
:1007B0006EFD38B304EB8708303DC8F8185019E0D7
:1007C00059F8041B204604EB87029161E1688847D1
:1007D000012F054618D1E069002820DA26F020060E
:1007E0001DE0D8F8180000EB800005EB4000303821
:1007F000C8F818002046E1688847054609F047FD1B
:100800000028EED1012F0AD02E2D08D12046E16814
:1008100088477F1C0546022F46F02006C4DBA069EE
:10082000002803DA404246F00106A061F00701D03B
:1008300026F010066C2D0BD0682D09D04C2D39D028
:100840006A2D35D0742D35D07A2D33D016E038E0AE
:10085000E1682F4620468847B842054609D16C2FEB
:1008600026D04FF48060E16806432046884705465D
:1008700004E06C2F1AD04FF4807006430DB3A5F13D
:100880004100192802D8203546F400664A46294618
:10089000204626604E46FFF7E3FC80B101280BD0CE
:1008A000F61D26F0070000F1080956E74020E4E7AE
:1008B0008020D8E70020D6E706F104094DE7284656
:1008C00052E7206ABDE8F09FDC55010030B50546CF
:1008D0000B462A4613F8014B12F8010B08B1A0424F
:1008E000F8D01CB1002802D06D1CF1E7284630BDBD
:1008F00040EA0103024630B59B0710D14FF00134A6
:1009000000E008C208C91D1B9D4315EAC41FF8D0AA
:1009100013F0FF0102F8011B0DD01B0AF8E711F8D4
:10092000013B002B02F8013B05D011F8013B002BE5
:1009300002F8013BF3D130BD10B5431C02E010F8C2
:10094000011B71B18107FAD14FF0013202C88C1A34
:100950008C4314EAC211F9D0C01A0A0603D0C01E93
:1009600010BDC01A10BD0A0401D0801E10BD0902BE
:10097000FCD0401E10BD421E12F8013F002BFBD1DF
:1009800011F8013B002B02F8013BF9D17047032A13
:1009900040F2308010F0030C00F0158011F8013B9C
:1009A000BCF1020F624498BF11F801CB00F8013B83
:1009B00038BF11F8013BA2F1040298BF00F801CB47
:1009C00038BF00F8013B11F0030300F03782083A0A
:1009D000C0F0088051F8043B083A51F804CBA0E875
:1009E0000810F5E7121D5CBF51F8043B40F8043BCA
:1009F000AFF30080D20724BF11F8013B11F801CBFF
:100A000048BF11F8012B24BF00F8013B00F801CBCF
:100A100048BF00F8012B70474FF000020429C0F0D6
:100A2000128010F0030C00F03D82CCF1040CBCF1FC
:100A3000020F18BF00F8012BA8BF20F8022BA1EB72
:100A40000C0100F02FBA5FEAC17C24BF00F8012B33
:100A500000F8012B48BF00F8012B70474FF0013C14
:100A600050F8042B51F8043B9A4221D1A2EB0C031D
:100A7000934313EACC1317D150F8042B51F8043BDD
:100A80009A4215D1A2EB0C03934313EACC130BD17A
:100A900050F8042B51F8043B9A4209D1A2EB0C0305
:100AA000934313EACC13DBD04FF00000704700BF34
:100AB000D01A01BAB1FA81F101F0180122FA01F05D
:100AC000CB40C1F12001DBB2C0B2C01A2CFA01F355
:100AD000D11A914311EAC311E6D1704770477047AC
:100AE0007047704730B5B0F10A024FEA900E71F1CD
:100AF00000034EEA817EB0EB0E0061EB91014FEAFC
:100B0000101E4EEA017E10EB0E0041EB11114FEA70
:100B1000102E4EEA016E10EB0E0041EB11214FEA50
:100B2000104E4EEA014E10EB0E0041EB1141401801
:100B300041F100014FEAD00040EA41704FEAD10193
:100B400010EB80054FEA810444EA907444EB010401
:100B50006D1944EB0404521BA3414FF0000348BF3E
:100B60000A3200D530BD401C41F1000130BD10B546
:100B700000F0BEF9006810BD10B5044600F0B8F9E9
:100B8000046010BD09684A0501D540B27047C90527
:100B9000FCD500B2704709684A0501D5C0B270475C
:100BA000C905FCD580B270472DE9F0470D4699463E
:100BB0009246044600F124080168880604D5E069DD
:100BC00021F01001216000E00120A84201DD471B57
:100BD00000E00027A1697A1902EB0900081AA06158
:100BE0002078C00602D42046FFF798FC002608E0D3
:100BF000D4E901211AF806009047206A401C761CAF
:100C000020624E45F4DB2078C0060AD52046FFF767
:100C100085FC06E0D4E9012130209047206A401C81
:100C20002062381EA7F10107F4DC07E0D4E90121B6
:100C300018F805009047206A401C2062281EA5F184
:100C40000105F3DC2046FFF77FFC2078000602D583
:100C50000220BDE8F0870120FBE711680268006A06
:100C6000530501D508700AE0D30501D5088006E0D8
:100C7000130603D5C217C1E9000200E00860012095
:100C80007047000001694A1C02610878704700B58E
:100C90008FB0CDE901310021059105497944CDE9B5
:100CA000031011466846FFF74DFD0FB000BD000070
:100CB000E5FFFFFF0A6802F8010B0A60704710B5F4
:100CC000436913B1AFF3008001E0FFF74EFC012050
:100CD00010BD127800F124010A7000224A7001222E
:100CE000EDE711684FF0FF32E9E70000074B70B500
:100CF0000D467B44FFF7CBFF0446284600F09EFCE0
:100D000010B14FF0FF3070BD204670BD5FD90000BC
:100D10002DE9FF5F15468A460446DFF8AC80F844AB
:100D20000027D8E900103E46CDE9001010E03AF85F
:100D300016106A4602A800F085FC411C07D02178F5
:100D4000890603D5E269391891420DD80744761C0B
:100D50002078800602D5E069B84205DDAE42E6DBC8
:100D60003AF816000028E2D1A069C01BA061204615
:100D7000FFF7D4FBD8E90010CDE90010002017E000
:100D80003AF818106A4602A800F05CFCB0F1FF3F88
:100D900081460BD000250DF1080B05E0D4E90121B7
:100DA0001BF8050090476D1C4D45F7D308F1010075
:100DB000B0428046E4DB206A384420622046FFF7D8
:100DC000C3FBBDE8FF9F00002650010030B40021A6
:100DD00000F1240408E002F00705D208303542EAA9
:100DE0004372DB086554491C52EA0305F3D10468D9
:100DF000002310A2250708D504F020040C4304D0DA
:100E0000C46901230CA2641EC46130BCFFF7CCBED0
:100E100010B5044621461068FFF7BDFE0246204685
:100E2000BDE810400023D1E7D21D22F00701D1E92F
:100E30000023CBE7000000003000000010B5203A8E
:100E4000C0F00B80B1E81850203AA0E81850B1E883
:100E50001850A0E81850BFF4F5AF5FEA027C24BF39
:100E6000B1E81850A0E8185044BF18C918C0BDE830
:100E700010405FEA827C24BF51F8043B40F8043BF9
:100E800008BF7047D20728BF31F8023B48BF11F8AE
:100E9000012B28BF20F8023B48BF00F8012B704708
:100EA0004FF0000200B5134694469646203922BF03
:100EB000A0E80C50A0E80C50B1F12001BFF4F7AF4E
:100EC000090728BFA0E80C5048BF0CC05DF804EB30
:100ED000890028BF40F8042B08BF704748BF20F89E
:100EE000022B11F0804F18BF00F8012B7047000053
:100EF00000487047C4B4022070472DE9FF4F0C46EC
:100F00001E464FF0FF378BB0D2E90001DDF860805C
:100F10000A908A46C1F30A5505B93D4600210846A4
:100F20004FF00000BAF1000F00F4400005DA00EBCA
:100F300080004FF4400101EA50004FEA9059B9F1A6
:100F4000010F00DDB9460A9850EA4A000ED044F677
:100F50001050A5F2FF3545432F14B8F1000F1ED0F5
:100F60007542291E1EDDC9F100021CE0B8F1010F17
:100F70004FF0000001D0302103E0F24305E021549E
:100F8000401CB042FBDB30460022002121540B996B
:100F9000C1F80880C1E900200FB0BDE8F08FBD1B8B
:100FA0006D1CDEE74A4600DA694206A800F0E0FB65
:100FB00006AB93E8070003AB83E8070050460A99A5
:100FC00000F04DFC8DE80700A0F500501F380090A0
:100FD0000398002D09DD42F21F014A46084403A987
:100FE0000390684600F0ACFE08E0A0F500504A46C9
:100FF0001F3803A90390684600F0B6FE8DE807008D
:101000000004000C03D04FF0FF30410800E0104610
:10101000B8F1000F03D00022009215461EE0751EA5
:1010200005D4FFF75FFD303262556D1EF9D5B3462A
:101030000122084302D000227F1C04E020783028DF
:1010400001D100227F1E002A099786D01DE0112DB4
:1010500007DAFFF747FD303262556D1C50EA010296
:10106000F5D1084302D00098C8B10EE00021681EF7
:1010700005E0235C625C63542254401E491C81429B
:10108000F7DBAB46A81B401E0990002004F80B00BC
:101090000B98099AC0F80880C0E9002B7CE711265C
:1010A0004FF0000859E72DE9F04F88460446D21D5D
:1010B00022F0070191B0D1E90001CDE90A0109F060
:1010C00091F802460B98C00F01D02D2007E0206850
:1010D000810701D52B2002E0202101EAC000032A6C
:1010E000099001D0072A05DB03464146204600F05F
:1010F000FFFA0BE12078800601D5E06900E00620C8
:10110000B8F1650F814606D0B8F1660F18D0B8F176
:10111000670F70D131E00020B9F1110F009001DBB1
:10112000112301E009F101030AAA01A90CA8FFF7A4
:10113000E4FEDDE90C70002609F10105834647E075
:1011400001204B4600904FF000470AAA01A90CA8C5
:10115000FFF7D3FEDDE90DB00C995D46002610B90E
:1011600009F101000D18B9EB050003D4C0F1FF36F9
:1011700009F10105A5EB09002BE0B9F1010F01DA36
:101180004FF001090020B9F1110F0090484601DD30
:10119000112300E003460AAA01A90CA8FFF7ADFE3F
:1011A000DDE90C704D4600268346207800070AD4FE
:1011B000AB4500DA5D4601A8012D04DD411911F8A7
:1011C000011C302907D04F4502DA17F1040F04DA69
:1011D000012082460FE06D1EEEE7002F02DCED1BC2
:1011E0003E4403E0781CA84200DD7D1CB81B00F1E2
:1011F000010A4FF000472078000703D4AA4501DB1D
:101200004FF0FF3A0021B7F1004F0DF143088DF880
:10121000431024D002202B23002F01DA7F422D23FC
:101220000A21021EA0F1010000DC5FB197FBF1FC76
:1012300097FBF1F201FB1C7C17460CF1300C08F80F
:1012400001CDEEE7A8F1010003702188090501D561
:10125000452100E06521A0F1010800F8011C099872
:101260000FA9A1EB0807FF1D00B10120411901EBF7
:10127000EA70A1693844081A401EA0612078C006AF
:1012800002D42046FFF74AF9099828B1D4E9012190
:101290009047206A401C20622078C00622D5204654
:1012A000FFF73CF91EE0002E04DBB34502DD01A888
:1012B000805D00E03020D4E901219047206A401C85
:1012C0002062761CAAF101005FEA000A0AD100F050
:1012D0000BFAC0680168405CD4E901219047206A9C
:1012E000401C2062281EA5F10105DCDC07E0D4E9E2
:1012F000012118F8010B9047206A401C2062381E1B
:10130000A7F10107F3DC2046FFF71EF9032011B017
:1013100043E600002DE9F04F04460D46D21D22F0B1
:10132000070089B0D0E9009248461746394608F0D0
:1013300059FF0246F80F01D02D2307E020688107EE
:1013400001D52B2302E0202101EAC0038DF82030D3
:101350000BB1012000E00020032A824601D0072AB9
:1013600004DB2946204600F0C3F93DE120788006E1
:1013700001D40D2500E0E569C7F30A560D2D49DAC1
:1013800000214FEA175B08464FF00000002F00F4E1
:10139000400007DA00EB80004FF4400100EBD07012
:1013A00001EA60008115012901DD4FF0FF310022C3
:1013B0004FEA850CBCF1180F06D31346ACF11800A8
:1013C0004FF08052C24003E04FF4801323FA0CF335
:1013D0000CF10C0CBCF1200F04D3ACF1200C09FA79
:1013E0000CF001E007FA0CF000294FF0004801DD95
:1013F00018B90FE00ED140450CD319EB02095F413B
:1014000021B9404502D19F4329EA0209BBEB175F8E
:1014100000D0761C2088000502D57B48784402E085
:1014200079487844193808AA302302F80A30037C36
:101430000AF10101002E0AF1020A53546A4602DC45
:101440004FF0300101E04FF031014FF001088DF80D
:10145000001002D0A6F2FF3603E059EA470100D09F
:101460006A4E002D02DC2178090704D54FF00208EE
:101470002E218DF80110C44600210BE0C7F3034371
:101480003F01C35C491C6D1E02F80830052908F1B4
:10149000010801DA002DF1DC00210CE000EB1973EA
:1014A000491C1B786D1E082902F808304FEA0919FB
:1014B00008F1010801DA002DF0DC2178890602D557
:1014C00014E0A8F10108E04505DD02EB080111F880
:1014D000011C3029F5D0B8F1000F07DD02EB08013F
:1014E00011F8011C2E2901D1A8F10108002D05DDFC
:1014F0003E2102F808106D1E08F10108407C002E04
:1015000002F8080008F1010804DA2D20764202F8FA
:10151000080002E02B2002F808000A214FF47A703C
:10152000864208F101080BDB96FBF0F3303302F83A
:10153000083096FBF0F308F1010800FB136601E0A8
:10154000642E0CDB642096FBF0F3303302F8083095
:1015500096FBF0F308F1010800FB136601E00A2E88
:1015600006DB96FBF1F0303002F8080008F10108C4
:1015700096FBF1F001FB1060303002F80800A16921
:1015800008F1010808EB050202EB0A00081AA06145
:101590002078C00602D42046FEF7C0FF216A08AEBC
:1015A00001EB0A00206204E0D4E9012116F8010BE6
:1015B0009047BAF1010AF7D22078C00602D520463A
:1015C000FEF7ACFF6E4609E016F8010B3E280FD07F
:1015D000D4E901219047206A401C2062B8F101083B
:1015E000F2D22046FEF7B0FF09B00320BDE8F08F2D
:1015F000206A2844206203E0D4E90121302090478A
:101600006D1EEBD3F8E700004349010002FCFFFF29
:1016100010B5436913B1AFF3008001E0FFF778FB29
:10162000012010BD128800F1240182840022C284AE
:101630000122EDE711684FF0FF32E9E7007B00F08F
:101640008000704770B516460C46054600F044F819
:10165000036893F80101012806D0FF2C0FD8185D0C
:1016600068B101202C7070BDD3F8070132462146C5
:1016700003F2071303442846BDE8704018474FF0B3
:10168000FF3070BD00487047C4B402207546FFF7B4
:10169000F9FFAE4605006946534620F0070085462F
:1016A00018B020B5FEF75AFEBDE820404FF0000606
:1016B0004FF000074FF000084FF0000B21F007013A
:1016C000AC46ACE8C009ACE8C009ACE8C009ACE87D
:1016D000C0098D467047000010B500F005F8001DE8
:1016E00010BD00BF49F0000000487047E4B402207C
:1016F0002DE9F0411F46044603260168072A01F43C
:10170000006004DB08B116A505E016A503E008B1EA
:1017100015A500E015A521F010002060A069C01EED
:10172000A0610FB1401EA0612046FEF7F7FE4FB149
:10173000D4E9012138469047206A401C2062C01C31
:10174000206206E0206AFAE7D4E9012115F8010BCE
:101750009047761EF8D22046FEF7F6FEBDE8F081EF
:101760004E414E006E616E00494E4600696E660045
:101770002DE9F047814616468AB0334878440DC8B3
:101780008DE80D0030487844801C03AC0DC884E817
:101790000D0041F69B300844372190FBF1F290FB9D
:1017A000F1F5A5F1800501FB12041B3C02D5644252
:1017B000012000E00020DFF890A080460027FA44D6
:1017C000AAF1BE0A0DE0E00709D03246684607EBF1
:1017D00047010AEB810100F0C7FA8DE807006410A9
:1017E0007F1C002CEFD1184F7F44AC3F18E0E80776
:1017F00014D007EB04100DF1180A90E80E008AE8E7
:101800000E00C068F04201D198190890324606A92E
:1018100003A800F0A9FA03AB83E807006D10641C6D
:10182000002DE4D132466946B8F1000F03A802D07A
:1018300000F086FA01E000F097FAC9E90001C9F862
:1018400008200AB0BDE8F0877446010010B50446D0
:10185000AFF300802046BDE81040FEF766BD5FEAAA
:10186000400C08BF91F0000F4FEA8C234FEAC122D1
:1018700043EA51514FEA1C5018BF00F5F0404FEABF
:10188000300018BF41F000415FEA6C5C00F0298035
:10189000BCF1FF3F08BF40F080407047130C06BF0B
:1018A00012044FF0100C4FF0000C130E04BF120284
:1018B0000CF1080C130F04BF12010CF1040C930F70
:1018C00004BF92000CF1020CD30F04BF52000CF1C4
:1018D000010C11464FF00002A0F11F00A0EB0C001C
:1018E000704711F0004F08BF704731F000413FF4DE
:1018F000D5AF0B0C06BF09044FF0100C4FF0000CD5
:101900000B0E04BF09020CF1080C0B0F04BF0901F8
:101910000CF1040C8B0F04BF89000CF1020CCB0FEF
:1019200004BF49000CF1010CCCF12003A0EB0C002A
:1019300022FA03F302FA0CF241EA030100F101007A
:10194000704720F07F4C80EA030023F07F47ACEB28
:10195000070303F57C5300F0004003F1FF032DE97A
:1019600080494FEA154B09B44FEA144325EA0B4E60
:1019700024EA03480FF2042606EB132749083E78B1
:101980005FEA320203FB0667C7F5000707FB06F6AE
:101990004FEA54374FEAD64606F1020607FB066CBB
:1019A000CCF1005C4FEA1C472CEA074C07FB06F41D
:1019B0000CFB06F504EB15464FEA961634BF0020E3
:1019C0004FF000404FEAD13706FB07FC4FEA1C4CB2
:1019D0000CFB0BF7D21B03FB0CF761EB07010CFBB5
:1019E0000EF7B0EB074072EB17420CFB08F734BF61
:1019F000A2EB0742B2EB074261EB17414FEA0C44FE
:101A00004FEA910706FB07FC4FEA1C4C0CFB0BF757
:101A1000B0EBC74072EB573203FB0CF734BFA2EBBD
:101A2000C742B2EBC74261EB57310CFB0EF7B0EB8C
:101A3000C70072EB57720CFB08F734BFA2EBC7026A
:101A4000B2EBC70261EB5771039F4FEA816141EA34
:101A5000921104EBCC044FEAD1374FEA826206FBC5
:101A600007FC42EA90124FEA80604FEA1C4C0CFBE4
:101A70000BF7D21B03FB0CF761EB07010CFB0EF716
:101A8000B0EB074072EB17420CFB08F734BFA2EB38
:101A90000742B2EB074261EB17414FEA8C554FEA20
:101AA000910704EB9C2406FB07FC4FEA1C4C0CFB43
:101AB0000BF7B0EBC74072EB573203FB0CF734BFA8
:101AC000A2EBC742B2EBC74261EB57310CFB0EF7FA
:101AD000B0EBC70072EB57720CFB08F734BFA2EBF8
:101AE000C702B2EBC70261EB577115EB4C254FEA09
:101AF000816141EA92114FEA82624FEAD13742EAAC
:101B0000901206FB07FC44F100044FEA80604FEAA4
:101B10001C4C0CFB0BF7D21B03FB0CF761EB070112
:101B20000CFB0EF7B0EB074072EB17420CFB08F70B
:101B300034BFA2EB0742B2EB074261EB174115EB52
:101B40001C154FEA813141EA92414FEA823242EA62
:101B500090424FEA80304FEA0C7644F1000448EAA4
:101B600003434EEA0B484FF0000EB2EB080C71EB4A
:101B7000030724BF624639464EEB0E0E4FF0000BB2
:101B80000018524149414BEB0B0BB2EB080C71EBC7
:101B900003077BF1000B24BF624639464EEB0E0E65
:101BA0004FF0000B0018524149414BEB0B0BB2EBCD
:101BB000080C71EB03077BF1000B24BF624639462A
:101BC0004EEB0E0E51EA020718BF46F0010616EB67
:101BD0000E7655F1000254F1000103D5BDE88901EC
:101BE000BDE80088BDE88901BDE80048B61952414A
:101BF00041EB0101A3F10103704780807F7E7D7C72
:101C00007B7A7978777676757473727171706F6E8E
:101C10006E6D6C6C6B6A6A69686867666665646439
:101C2000636362616160605F5F5E5E5D5D5C5C5BC3
:101C30005B5A5A5959585857575656555555545432
:101C4000535352525251515050504F4F4F4E4E4D90
:101C50004D4D4C4C4C4B4B4B4A4A4A4949494848DC
:101C6000484747474746464645454544444444431C
:101C700043434342424242414141002B26D4770034
:101C800021D01CB54FEA370703B44FF010004FF0D6
:101C900010014FF000000FBCBDE810400BF1010B2C
:101CA000BBF1010F08BF5FEA170722BF12F1010263
:101CB00011F101014FF0004143F1000300F0004039
:101CC00043EA00007047F9D35708DAE746EA0646C8
:101CD00013F1400F4FEA16461FDD13F1200FDFBF4F
:101CE00016430A46002120335B42C8D0C3F12007C7
:101CF00046EA064602FA07F74FEA164646EA07069C
:101D0000C3F1200722FA03F201FA07F721FA03F1DF
:101D10004FF0000342EA0702B1E746EA020646EA4C
:101D200006464FEA164646EA0106BCBF46EA0646A4
:101D3000360C4FF000034FF000024FF000019EE719
:101D40002DE9C048934630B491E8380007C831EA1D
:101D5000400C48BF34EA430C03D5FFF7F2FDFFF710
:101D60008CFFF0BCBDE800882DE9C048934630B434
:101D700091E8380007C810F0804F08BF13F0804F7B
:101D800003D100F005F8FFF778FFF0BCBDE800884C
:101D900020F07F4780EA030023F07F4C07EB0C0321
:101DA000A3F57C5300F00040A3F1FE0392F0000F76
:101DB00000F0B38095F0000F00F077802DE9014925
:101DC0004FEA11404FEA144621EA004800FB06FCA6
:101DD00024EA064708FB06F607FB08F800FB07F7AE
:101DE00018EB06484CEB164C4FEA124B18EB074821
:101DF0004FEA15464CEB174022EA0B4E0BFB06FC54
:101E000025EA06470EFB06F607FB0EFE0BFB07F75F
:101E10001EEB064E4CEB164C4FF000061EEB074E29
:101E20004CEB174B18EB0B0840F1000018EB0E0BB6
:101E300058EB000840F100008F1A4FF000013CBF42
:101E4000C943661B14BFB5EB040C00213CBFC9435A
:101E5000F61B4FEA17444EEA8E0E27EA04454FEA76
:101E60001C4704FB07622CEA074C05FB07F70CFB39
:101E700005F604FB0CFC16EB074642EB174216EB8B
:101E80000C4642EB1C421BEB060658EB020241419A
:101E900046EA9E0601D5BDE80189B619524141EBDB
:101EA0000101A3F10103BDE801894FEA14454FEA9E
:101EB000114724EA054621EA074C05FB07F406FB17
:101EC00007F70CFB06F105FB0CFC11EB074144EB9B
:101ED00017444FEA124711EB0C4144EB1C4422EA31
:101EE000074C05FB07F206FB07F70CFB06F605FBA4
:101EF0000CFC16EB074642EB174216EB0C4642EB86
:101F00001C456A1854F1000148BF7047B619524188
:101F100041EB0101A3F10103704795F0000F37D0A9
:101F20004FEA11424FEA144721EA024624EA074CDD
:101F300002FB07F106FB07F70CFB06F402FB0CFCA7
:101F400014EB074441EB17414FEA154714EB0C44DF
:101F500041EB1C4125EA074C02FB07F506FB07F79E
:101F60000CFB06F602FB0CFC16EB074645EB17458F
:101F700016EB0C4645EB1C42121951F1000148BF0B
:101F80007047B619524141EB0101A3F101037047BB
:101F90004FEA14454FEA114724EA054621EA074C67
:101FA00005FB07F106FB07F70CFB06F24FF00006F6
:101FB00005FB0CFC12EB074241EB174112EB0C4204
:101FC00051EB1C4148BF7047921841EB0101A3F14E
:101FD0000103704701F0C8BA2DE9F0410D460146F2
:101FE000002004464E1908E00702301B401E80B254
:101FF00000F007F8641C3844E4B2AC42F4D3BDE806
:10200000F08110B5044601F04FFB200AA02101EB3E
:102010004000C0B201F018FB01F088FBE0B201F013
:1020200013FB01F083FB01F03FFBA12001F00CFB4F
:1020300001F07CFB002001F0D3FA044601F054FBD0
:10204000204610BD2DE9F04116460D4607460024F6
:1020500009E0E00025FA00F0C1B2381980B200F0C2
:1020600006F8641CE4B2B442F3D3BDE8F08170B565
:102070000D46044601F018FB200AA02101EB4000A8
:10208000C0B201F0E1FA01F051FBE0B201F0DCFA7C
:1020900001F04CFB284601F0D7FA01F047FB01F0B4
:1020A00023FBBDE870400A200BF0C0B870B50F4CA0
:1020B0000025C4F898520E48016821F0C001016063
:1020C000016841F040010160022004F526740BF024
:1020D000C7F80848C0F88C5202200BF0C1F8012064
:1020E000206002200BF0BCF8256070BD00804342E8
:1020F00000200240000044427CB50E48016841F0D7
:1021000080010160016841F48071016001250324B0
:1021100000232A4640210848CDE9004500F07CFF15
:102120000023012208210548CDE9004500F074FF95
:102130007CBD000030380240001C024000200240FC
:1021400070B50F4C0026C4F898620E48016821F063
:10215000C0010160016841F040010160022004F506
:1021600026740BF07DF808480125C0F88C52022037
:102170000BF076F8256002200BF072F8266070BD37
:102180000080434200200240000044422DE9F04715
:10219000824617480024016821F0C00101600168EF
:1021A00001601E200BF05CF80025124EDFF848900D
:1021B0002F464FF00108C6F8987202200BF050F835
:1021C000C6F898826006040ED9F80C0208B1641CA7
:1021D000E4B26D1CEDB2082DEDD3BAF1000F04D0BE
:1021E000FFF764FF2046BDE8F087FFF7A9FFF9E796
:1021F0000020024000804342000044422DE9F047A5
:1022000005461548016821F0C0010160016841F0F0
:1022100040010160114E0027C6F8987202200BF0B1
:102220001FF8DFF83C8000244FF00109E909C8F8E5
:102230008C126806050EC6F8989202200BF010F872
:10224000C6F8987202200BF00BF8641CE4B2082C5C
:10225000ECD3BDE8F087000000200240008043423C
:102260000000444270B50F48016821F0C0010160D0
:10227000016841F0400101600B4E0120C6F88C025C
:102280000A4DC5F898021E2005F5267506F5237639
:102290000AF0E6FF0024346002200AF0E1FF2C601F
:1022A00070BD000000200240000044420080434214
:1022B00070B50D48016821F0C0010160016841F06E
:1022C0004001016009480125C0F898521E200AF01B
:1022D000C7FF074C0020C4F88C02022004F52374C9
:1022E0000AF0BEFF256070BD00200240008043421E
:1022F0000000444270B511480024016821F0C0017B
:102300000160016801600E4D0120C5F88C020D4E80
:10231000C6F8980207E0641CE4B2FA2C03D9FFF770
:10232000C7FF012070BD02200AF09AFFD5F80C0209
:102330000028F0D1C6F8980270BD000000200240CD
:10234000000044420080434200204FF48031084A9C
:1023500002E013681B0602D4491EFAD200E029B13C
:10236000034A40F2FF51121D11607047032070476D
:10237000342C0140104A116811F0450FFBD00F4A70
:102380004B0703D50420106003207047C90702D013
:10239000012010607047084924390968814201D042
:1023A0001020704740F2FF5010600348203800684A
:1023B00000F0080070470000342C0140382C014028
:1023C00030B5104D00204FF480322C1F0BE02168F7
:1023D00011F0450F07D00AB14A0707D52968032035
:1023E00041F004010BE0521EF1D2F5E7C90704D019
:1023F0002968012041F00101296040F2FF51296064
:1024000030BD0000382C01400949086810F0450F24
:10241000FBD04107074805D5016841F00401016080
:102420000320704740F2FF51016000207047000018
:10243000342C0140382C014030B50546194B0020A2
:102440001A6812F0450FFBD0174B540705D51868D2
:1024500040F004001860032030BDD20705D0186892
:1024600040F001001860012030BD0E4A243A126885
:10247000AA4211D140F2FF521A600A4A203A126869
:1024800012F4604F03D0910404D5132030BD120C18
:102490000A8030BD510401D5102030BD1104FCD597
:1024A0000F2030BD342C0140382C014030B50E4D8A
:1024B00000204FF480322C1F0BE0216811F0450FF3
:1024C00007D00AB14A0707D52968032041F0040163
:1024D00008E0521EF1D2F5E7490604D5296800202C
:1024E00041F04001296030BD382C0140FEB5314833
:1024F000016841F080010160016841F48071016070
:1025000000250124CDE900542B462A4680212A4883
:1025100000F082FD0320CDE9000401220023110216
:10252000264800F079FDFFF7E7FD254EC6F8A052DA
:10253000142006F528760AF079FE346032200AF07D
:1025400075FE8DF80850012202A9002000F008F95C
:10255000012202A9A42000F003F916208DF808003A
:10256000012202A9802000F0FBF80C208DF8080061
:10257000012202A9882000F0F3F8022202A9A1207A
:1025800000F026F89DF80800302803D19DF80910C6
:10259000032907D09DF80910012903D0022901D091
:1025A0000120FEBDC9B201EB002106A0FDF794FF9A
:1025B0000020FEBD30380240001C024000200240D6
:1025C000000044424354502049443A25780D0A0003
:1025D0002DE9F04115460F460446FFF743FE7020F3
:1025E000FFF70CFEFFF786FEE0B2FFF707FEFFF7EE
:1025F00081FEFFF737FE7120FFF700FEFFF77AFE3E
:1026000000246E1E09E0B44201D0012000E0002049
:10261000FFF7BCFD3855641CE4B2AC42F3D3BDE80F
:10262000F041FFF745BE00002DE9F143484F00247B
:102630004FF00A09387882B0401CC0B2B0FBF9F202
:1026400009FB1201434DA046387009B10A2864D233
:10265000012202A90220FFF7BBFF9DF80800010735
:102660005BD000F00F00062857D2FF218140C843FD
:1026700040F0C00085F820004FF00108002695F8D2
:10268000201008FA04F001423AD033480422694687
:1026900030F81400FFF79CFF95F830009DF800100B
:1026A000C0079DF8010001F00F010ED000EB0121E1
:1026B00005EB4400C1829DF802209DF8031002F052
:1026C0000F0201EB0221818110E000EB0120234980
:1026D0000988091A05EB440081819DF802209DF8C4
:1026E000031002F00F0201EB0221C1829DF80000ED
:1026F0000821B1EB101F03D005EB4400C682868190
:10270000641CE4B2052CBAD3A9894FF0010819B9A9
:10271000E88A08B98DF808603E709DF80800C00688
:102720000ED195F82000010602D520F0800005E0CA
:102730004FF6FF71A981E98200F0E00085F82000E2
:102740003878F02801D987F800904046BDE8FE832C
:10275000340000203C000020D8570108340300203A
:102760002DE9F04115460E4604460027FFF77AFD95
:102770007020FFF743FDFFF7BDFDE0B2FFF73EFD20
:10278000FFF7B8FD002408E0305DFFF737FDFFF7E5
:10279000B1FD070003D1641CE4B2AC42F4D3FFF7EF
:1027A00087FD3846BDE8F08138B50446094D4FF045
:1027B000AA300090A879042360436A46002105F0FE
:1027C000CDF8A879042360436A460021401C05F037
:1027D000C5F838BDE00500202DE9FC47254F8946A6
:1027E0000646002500240DF1040810E0CDF8008015
:1027F000798870438B084A46002104F031FF7888BD
:10280000BDF80410B1EB900F04D1641CA4B2B879E8
:10281000A042EBD8B879A04202D10020BDE8FC87E5
:10282000304604F0D1FC20B1294613A0FDF754FE38
:1028300016E0B9F1FF3F13D000200AE07A8806FBCA
:10284000001093080022114605F060F8BDF804005E
:10285000401CADF80400B879BDF804108842EDD8EA
:102860006D1CADB2032DBDD3314609A0FDF734FE7A
:102870000120D3E7E00500206572726F7220657257
:1028800061736520626C6F636B3A25640D0A00000A
:1028900062616420626C6F636B20636865636B6563
:1028A000643A25640D0A000038B50446104D002036
:1028B0008DF80000A879012360436A46002104F0E6
:1028C00003FF9DF80000FF2801D0022038BDA87941
:1028D000012360436A460021401C04F0F5FE9DF888
:1028E0000000FF2801D0012038BD002038BD0000C5
:1028F000E00500202DE9F84F91462F4A8A461D46F3
:102900009179B0FBF1F3B0FBF1F801FB130B4046FA
:1029100000F0B8F8284907464889B84202D2012099
:10292000BDE8F88F002428E05C4516D3ADB14A8895
:10293000A2EB0A01A94201D28EB200E0AEB207FBBF
:10294000004108FB00404B465246009604F0C4FA92
:102950004FF0000AB144AD1B05E007FB004108FB46
:10296000004004F08BFB30B13846FFF71DFF01201B
:1029700000F024F8CBE7641CA4B20F498879A04288
:10298000D2D80D46A879A04214D1384600F028FAD2
:10299000404604F019FC00206A89696908E031F8B2
:1029A0001040444502D121F8107003E0401C80B271
:1029B0008242F4D80020B3E7E0050020F8B50646CF
:1029C0000021294D4FF6FF7003E06A6922F81100DB
:1029D000491C6A898A42F8D80020A88104461CE074
:1029E000A879042360436A46002104F06DFE9DF837
:1029F0000000FF280CD1B6B1A879012360436A46D4
:102A00000021401C04F060FE9DF80000FF280AD061
:102A1000214616A0FDF760FD641C6989A142DFD83C
:102A200000206A6916E09DF802009DF8031000EB93
:102A300001206989814202D9696921F81040A88979
:102A4000401CA881E8E732F810308B4201D3E881BE
:102A500002E0401C8142F6D8E889642801D20220B5
:102A6000F8BD0020F8BD0000E00500206261642090
:102A7000626C6F636B20696E6465783A25640D0A39
:102A80000000000070B5104E104C71892268491E7C
:102A9000914200D2216000F001052946206800F033
:102AA00017F8411C0AD170892168401E884207D955
:102AB0002946206000F00CF8411C01D0206070BD58
:102AC0004FF0FF3070BD0000E005002074000020D2
:102AD000F8B50D460021401C0091040012D00C4FA7
:102AE000012626EA0400A8420AD1B879611E4843AB
:102AF00004236A46002104F0E7FD0098401C04D03E
:102B0000641EEED14FF0FF30F8BD601EF8BD00002E
:102B1000E0050020F8B5254E00273C46B78113E0BC
:102B20002046FFF7C1FE70B9204604F04DFB38B1D6
:102B300021461FA0FDF7D0FC2046FFF735FE02E03E
:102B4000B089401CB081641C7089A042E8D8B1896A
:102B50001BA0FDF7C1FCB089642801D20120F8BD9B
:102B6000C0EB4010642100EB4000B0FBF1F5002405
:102B7000009710E02046FFF797FE58B9B07902237E
:102B800060436A46194604F0E9FE0098401C009034
:102B9000A84203D0641C7089A042EBD80120FFF743
:102BA0000DFF0028DBD00220F8BD0000E00500206A
:102BB00042616420626C6F636B3A25640D0A000009
:102BC000676F6F645F626C6F636B6E756D3A2564DF
:102BD0000D0A000010B504F021FB00BB184C616920
:102BE00011B100200CF01CF96089410000200CF0AC
:102BF00023F9606161894900FDF70EFF606970B1DA
:102C00000120FFF7DBFE60B10EA0FDF765FCFFF7CA
:102C100081FF90B111A0FDF75FFC022010BD0120E3
:102C200010BD618912A0FDF757FCA18916A0FDF720
:102C300053FCE18919A0FDF74FFC002010BD0000F6
:102C4000E0050020666F726D6174206E616E642015
:102C5000666C6173682E2E2E0D0A0000666F726D11
:102C60006174206661696C6564210D0A00000000D2
:102C7000746F74616C20626C6F636B206E756D3A5B
:102C800025640D0A00000000676F6F6420626C6F9E
:102C9000636B206E756D3A25640D0A0076616C6970
:102CA0006420626C6F636B206E756D3A25640D0A4B
:102CB000000000000549CA89824202D24FF6FF7027
:102CC0007047496931F8100070470000E0050020A6
:102CD0002DE9FF5F9B4615468246002679E03F4C72
:102CE0006088B0FBF5F1A079414301988319B3FBEB
:102CF000F1F0FFF7DFFF6189814203D8012004B0C2
:102D0000BDE8F09F354C6188A479B1FBF5F26243D0
:102D1000B3FBF2F702FB17326A43B2FBF1F300FB9D
:102D20000437B2FBF1F001FB1028A1EB0800B0FB67
:102D3000F5F084B2ABEB0600A04200D284B204FBF3
:102D400005F91FFA89F31FFA88F15246384604F054
:102D500069FB032809D11FFA89F31FFA88F152464B
:102D6000384604F05FFB032804D004282ED068B353
:102D70000220C4E74B461FFA88F152463846FFF757
:102D8000B9FDDFF858804FF0FF3198F80600B7FB27
:102D9000F0F0FFF721FD80B998F806000021B7FB9D
:102DA000F0F0FFF719FD814698F80600B7FBF0F048
:102DB00004F00AFAB9F1000F08D098F80600B7FB42
:102DC000F0F0FFF7F1FC0120FFF7F8FD05FB04AA86
:102DD00026445E4583D3002091E70000E0050020F3
:102DE00008B5CC218DF80010044901236A46897981
:102DF0004843194604F0B2FD08BD0000E00500207C
:102E00002DE9FF4F85B0154600274FF0FF3B7BE0D3
:102E1000404C6088A179B0FBF5F048430699CB1986
:102E2000B3FBF0F0FFF746FF61898046414503D8C8
:102E3000012009B0BDE8F08F364A50889279B0FB86
:102E4000F5F15143B3FBF1F401FB143101FB05FA39
:102E5000BAFBF0F308FB0231BAFBF0F200FB12A957
:102E6000A0EB090080B2B0FBF5F002910899ADF833
:102E70000400C91B8CB20391844200D3044601A80C
:102E800004FB05F600901FFA89F1C6F38F034FF09B
:102E9000FF32029804F0E4FB08B10220C9E7BDF854
:102EA0000400B0EB960F0FD1B3B21FFA89F1059A67
:102EB000029804F083FC38B94146C34520D0084647
:102EC000FFF78EFFC346D8B112488179408841434D
:102ED000A1EB0A00B0FBF5F0039980B28CB2ADF81B
:102EE0000400844200D3044604FB05F61FFA89F16E
:102EF0003346059A0298FFF7FDFC08B1032098E7D6
:102F000005982744304405900898874280D30020D4
:102F10008FE70000E0050020FCB500240D460646C2
:102F20000094082201211020019404F0D9FE102001
:102F3000FFF720FA002834D132040121372004F0B1
:102F4000CFFE3720FFF716FA00282AD101230322EB
:102F50000821401E04F0D6FE00220121332004F097
:102F6000BFFE3320FFF706FA214A002819D1204B73
:102F700069464C3340F22A661768374208D1176811
:102F8000BF02F9D51F6841F82470641C022CF3D3EA
:102F900011680B07174905D5086840F0080008605C
:102FA0000420FCBD13689B0705D5086840F00200AB
:102FB00008600220FCBD13689B0605D5086840F038
:102FC000200008600620FCBD1268920505D508683F
:102FD00040F4007008600720FCBD40F2FF520A6018
:102FE000009909BA6960019909BA2960FCBD00001D
:102FF000342C0140382C0140CB0810B500EB830085
:10300000036A4907C90E0F248C40A3430362036A75
:103010008A401343036210BD2DE9F04F9946DDE964
:1030200009AC00234FF0010B4FF0030E0BFA03F530
:1030300001EA0504AC422AD107685C000EFA04F6E6
:10304000B7430760076802FA04F847EA0807076011
:10305000012A01D0022A12D18768B7438760D0F8CD
:1030600008800AFA04F748EA0708C0F808804768A9
:10307000AF434760476809FA03F52F434760C568C7
:10308000B543C560C5680CFA04F42543C5605B1CF4
:10309000102BCBD3BDE8F08F2DE9FF413A480168F2
:1030A00041F080010160016841F4807101600024F9
:1030B000364F01252346224680213846CDE900457A
:1030C000FFF7AAFF0320CDE900050122002311022A
:1030D0002F48FFF7A1FFFFF70FF82E4EC6F8A042CA
:1030E0000A2006F528760AF0A1F835600A200AF0D1
:1030F0009DF8002300941A46802138460194FFF77A
:103100008BFF64200AF092F8042202A948F24010D2
:1031100000F058F88DF80C4002A91FA0FDF7DCF96B
:1031200020A102A8FDF79AFC18B1012004B0BDE867
:10313000F08102208DF8080048F24005012202A922
:10314000284600F07BF9012202A9E81D00F03AF8B8
:103150009DF8081060290BD214A0FDF7BDF918489E
:103160008088A0F5AA41103902D1012000F040F971
:103170000A200AF05BF88DF80840012202A92846CF
:1031800000F05CF90020D1E730380240001C02401A
:1031900000200240000044424354502049443A2554
:1031A000730D0A0039313437000000004465666150
:1031B000756C74205665723A25640D0A0000000093
:1031C000340300202DE9F04115460F460446FFF771
:1031D00049F82820FFF712F8FFF78CF8200AFFF7CC
:1031E0000DF8FFF787F8E0B2FFF708F8FFF782F86D
:1031F000FFF738F82920FFF701F8FFF77BF80024E4
:103200006E1E09E0B44201D0012000E00020FEF76C
:10321000BDFF3855641CE4B2AC42F3D3BDE8F041C5
:10322000FFF746B82DE9F14F6D4E00244FF00A0B21
:10323000307882B0401CC0B2B0FBFBF20BFB120135
:10324000684DA146307009B10A2873D248F24E1772
:10325000012202A93846FFF7B5FF9DF808004FF09C
:10326000000801060AD500F00F00062806D28DF8E6
:103270000480012201A9384600F0E0F89DF808001A
:10328000010757D000F00F01062953D2FF208840D4
:103290008DF80400C04395F820A040F0C00085F8E8
:1032A0002000A889A882E88A4F4FE8834FF00109DF
:1032B00095F8201009FA04F001424ED04B48042240
:1032C000694630F81400FFF77DFFB888A0F5AA41E1
:1032D000103904D0A0F58641423916D03DE095F86A
:1032E0003000C00715D09DF800009DF8011000EBDC
:1032F000012105EB4400C1829DF802109DF80320D6
:1033000001EB0221C1F5487126E095F83000C007B5
:1033100011D09DF800009DF8011000EB012105EB94
:10332000440081819DF802109DF8032001EB0221E9
:10333000C18212E02CE09DF800009DF8011000EB26
:10334000012105EB4400C1829DF802109DF8032085
:1033500001EB0221C1F588718181641CE4B2052C66
:10336000A6D3A9893A884FF001092846914203D88B
:10337000C18A7A88914209D99DF8081001F00F019D
:1033800001290CD9C1898181018BE98286F80080ED
:103390009DF8080000F08F0080280AD018E0818A8C
:1033A0008181C18BC18280218DF8081085F820A011
:1033B000EEE795F82000010602D520F0800005E038
:1033C0004FF6FF71A981E98200F0E00085F8200046
:1033D0003078F02801D986F800B04846BDE8FE8F65
:1033E000350000203C000020340300209A580108DA
:1033F00008B500218DF800108DF801000E489DF8E9
:103400000020435C491C1A44C9B28DF80020B82939
:10341000F5D3D0B2C043401C8DF80000B822064955
:1034200048F2470000F00AF80222694648F2FF001D
:1034300000F004F8002008BDE25701082DE9F04132
:1034400015460E4604460027FEF70CFF2820FEF71F
:10345000D5FEFEF74FFF200AFEF7D0FEFEF74AFF2B
:10346000E0B2FEF7CBFEFEF745FF002408E0305D3A
:10347000FEF7C4FEFEF73EFF070003D1641CE4B272
:10348000AC42F4D3FEF714FF3846BDE8F0810000EB
:1034900030B40C4601461546500700D0012000EB21
:1034A000D50010FB05F0C2B208784B78812809D30B
:1034B000402B07D3FF2B05D0FF2803D07F2B0CD246
:1034C000403B0BE00023184603E05B1C04F8010BB3
:1034D000DBB29342F9D330BC7047413B8138D9B25B
:1034E000C0B2C0EB401303EB801001EB400050432F
:1034F0000C490C2D0CD0102D0DD0182D0ED0202DD8
:10350000E9D1D1F821100144204630BC06F038BD85
:10351000D1F80910F7E7D1F81110F4E7D1F8191034
:10352000F1E7000098B4022070B50D4C0025C4F8F6
:1035300090520C48016821F440610160016841F437
:1035400080610160C4F89452022004F5247409F0EB
:1035500087FE01202060022009F082FE256070BDF8
:1035600000804342001C02401CB50A48016841F03B
:103570008001016001240220CDE9000400232246DD
:1035800030210548FFF748FD0448C0F89042C0F8D4
:1035900094421CBD30380240001C0240008043426F
:1035A00070B50D4C0026C4F890620C48016821F4F7
:1035B00040610160016841F4806101600125C4F847
:1035C0009452022004F5247409F04AFE256002207A
:1035D00009F046FE266070BD00804342001C024098
:1035E0002DE9F047814616480024016821F4406126
:1035F000016001680160134E254627464FF001081F
:10360000C6F89072022009F02BFEC6F89082600680
:10361000040ED6F8140208B1641CE4B2012009F0CB
:103620001FFE6D1CEDB2082DEAD3B9F1000F04D0D6
:10363000FFF77AFF2046BDE8F087FFF7B1FFF9E713
:10364000001C0240008043422DE9F0410546144829
:10365000016821F440610160016841F4806101600A
:10366000104E0027C6F890723C464FF00108E8095A
:10367000C6F894026806050E022009F0F1FDC6F8AE
:103680009082022009F0ECFDC6F89072022009F049
:10369000E7FD641CE4B2082CE9D3BDE8F08100002A
:1036A000001C02400080434270B50D48016821F4BF
:1036B00040610160016841F480610160094C0120B2
:1036C000C4F89402C4F89002042004F5247409F0AC
:1036D000C7FD00256560042009F0C2FD256070BDAE
:1036E000001C0240008043420E4810B5016821F4DE
:1036F00040610160016841F4806101600A4C002072
:10370000C4F89002C4F89402042004F5247409F06B
:10371000A7FD012020606060BDE81040042009F092
:103720009FBD0000001C02400080434270B512485B
:103730000024016821F440610160016801600F4DBF
:103740000126C5F89462304609F08AFDC5F89062FA
:10375000012009F085FD07E0641CE4B2FA2C03D9CE
:10376000FFF7C2FF012070BDD5F814020028F3D185
:10377000C5F8900270BD0000001C0240008043426A
:1037800072B6704762B670471CB5044600200090C0
:1037900001901A480121008902040D2004F0A0FACA
:1037A000174908680190024601E00A68019212F088
:1037B000450FFAD01348D10705D0016841F0010147
:1037C000016001201CBD510705D5016841F00401CD
:1037D000016003201CBD0A49243909680D2901D064
:1037E00010201CBD40F2FF510160054820380068E0
:1037F0000090C0F34320207000201CBD200000205A
:10380000342C0140382C01407CB51448016841F04B
:1038100001010160016841F004010160016841F0AB
:103820008001016000240220CDE9004023462246A9
:1038300001210B48FFF7F0FB012500231A4669031D
:103840000848CDE90045FFF7E7FB00231A460C21A5
:103850000548CDE90045FFF7DFFB7CBD303802406D
:103860000000024000080240001C02402DE9F04127
:10387000224C234E234F244D012108B1217001E039
:10388000207860B1D5F80C0270B1D5F8080258B1B3
:10389000D6F8340240B1D7F80002012804D0D5F898
:1038A0000C0201281CD027E00A2009F0BFFC0020F0
:1038B0002070D5F80C0250B1D5F8080250B1D6F8F6
:1038C000340248B1D7F80002012807D014E00120E3
:1038D000BDE8F0810220FBE70320F9E70420F7E7C9
:1038E000D5F80802012807D1D6F83402012803D1FF
:1038F000D7F8000200B921700020E9E70C00002091
:1039000000004142000040420080434270B50E4931
:103910000E4A064608881268002422B13046BDE8E7
:10392000704002F02DBF4D8800214543084602F04B
:103930008BFD02F0F7FEB1B2054801E00180641C86
:10394000AC42FBD370BD00003403002044030020D0
:10395000000008602DE9F05F394C3A4DA0712968EC
:1039600039B102F059FFE88A2080288B6080BDE8D9
:10397000F09F33492C232A2589884FF0F00949F21A
:10398000413A2B2645F2105B4FF4305E4FF44877F6
:103990004FF4A07845F2103C4FF4F07258B1A4F8FF
:1039A0000080A4F80290514501D0614529D12381BE
:1039B0006581A68139E0A4F80090A4F80280514501
:1039C00001D0614508D123816581A681614531D14E
:1039D000A4F8008062802DE0594508D1A4F808E0E1
:1039E0004FF4285060814FF42C50A08106E0A1F5DF
:1039F000C85063381ED123816681A58122806780EB
:103A000018E0594508D1A4F808E04FF42850608127
:103A10004FF42C50A08106E0A1F5C850633804D1C2
:103A200023816581A68127806280614502D1228041
:103A3000A4F80280BDE8F05F002002F029BC00007D
:103A400034030020440300202DE9FE4F0026A2EBA2
:103A5000000882465F1A701E35468946B8F1000F8D
:103A600002DD4FF0010102E003D14FF000010191AE
:103A700002E0C8F100080190002F02DD4FF00100C4
:103A800002E003D14FF00000009002E0C7F1000710
:103A900000904046B84501DD044600E03C46601C0D
:103AA0004FF0000B029015E01FFA89F11FFA8AF01F
:103AB00000F016F846443D44A64202DD0199361B4B
:103AC0008A44A54202DD00992D1B89440BF10100B7
:103AD0001FFA80FB02998B45E6DDBDE8FE8F0000F2
:103AE00010B5084A084C126822B12268BDE810409F
:103AF00002F0A6BE02F0A8FC02F014FE03492088E2
:103B0000088010BD44030020100000200000086061
:103B10002DE9F0411C4615460E4607460B46FFF7B9
:103B200093FF3A46234631461046FFF78DFF234662
:103B30002A4619463846FFF787FF2A46234631466C
:103B4000BDE8F0411046FFF77FBF2DE9FC5F8046DE
:103B50000024154603200F46A0EB450649E0781BDC
:103B600081B208EB040A01901FFA8AF0FFF7B8FF50
:103B7000381B81B208EB050900901FFA89F0FFF7A6
:103B8000AFFF07EB040B1FFA8BF11FFA89F0FFF769
:103B9000A7FF07EB05091FFA89F11FFA8AF0FFF763
:103BA0009FFFA8EB040A1FFA89F11FFA8AF0FFF7BA
:103BB00097FFA8EB05091FFA8BF11FFA89F0FFF7B1
:103BC0008FFF019881B21FFA8AF0FFF789FF0098F2
:103BD00081B21FFA89F0FFF783FF641C002E03DA1D
:103BE00006EB8406B61D04E0601B06EB80066D1E26
:103BF0000A36AC42B3DDBDE8FC9F00002DE9F04180
:103C0000044639480D46006820B12046BDE8F04121
:103C100002F016BE354E270A3146B0884989A0F514
:103C200013434FEA1528413B0BD0A0F5A643103BA8
:103C300007D0B3F5007311D0A0F5C853633B27D06C
:103C40004BE0084602F062FD384602F053FDE0B258
:103C500002F050FDB08902F059FD38E0084602F04C
:103C600055FD384602F046FD7089401C80B202F0D6
:103C70004DFDE0B202F03EFDB08902F047FD404646
:103C800002F038FDB089401C80B202F03FFD21E017
:103C9000B07918B93088001B401E84B2084602F083
:103CA00035FD270A384602F025FDE0B202F022FD7C
:103CB000384602F01FFDE0B202F01CFDB08902F0B0
:103CC00025FD404602F016FDE8B202F013FD404625
:103CD00002F010FDE8B202F00DFD054930890880C0
:103CE000881C0280BDE8F0814403002034030020DA
:103CF000FEFF07602DE9F8431F46144B80460898E5
:103D00001B6833B100903B46404602F0B7FDBDE86A
:103D1000F883A2EB0802521C96B20C4685B2DFF87B
:103D200030900FE02146404602F08EFB02F0FAFC94
:103D30000020494602E00D80401C80B2B042FAD318
:103D4000641CA4B2BC42EDD9E1E7000044030020AA
:103D5000000008602DE9FC5F03F024F8FE4D4FF0F1
:103D6000010B4FF02049A88045F2103645F210545F
:103D700041F6631818B102F0D7FD02F01DBAF748FA
:103D8000016841F002010160016841F01801016021
:103D9000F2480830016841F0010101600220CDE9DC
:103DA000000B5F46002301222021ED48FFF734F984
:103DB0004FF0030ACDE900A7002302224EF2B371AF
:103DC000E848FFF729F9CDE900A7E74F00230222D1
:103DD0004FF680713846FFF71FF90C220021E148A9
:103DE000FFF70AF90C220121DE48FFF705F90C2242
:103DF0000421DC48FFF700F90C220521D948FFF720
:103E0000FBF80C220721D748FFF7F6F80C2208210F
:103E1000D448FFF7F1F80C220921D248FFF7ECF85B
:103E20000C220A21CF48FFF7E7F80C220D21CD48DC
:103E3000FFF7E2F80C220E21CA48FFF7DDF80C224A
:103E40000F21C848FFF7D8F80C2207213846FFF7A2
:103E5000D3F80C2208213846FFF7CEF80C220921AE
:103E60003846FFF7C9F80C220A213846FFF7C4F894
:103E70000C220B213846FFF7BFF80C2211463846BA
:103E8000FFF7BAF80C220D213846FFF7B5F80C22DF
:103E90000E213846FFF7B0F80C220F213846FFF705
:103EA000ABF800214846C9F80010C9F80410C9F859
:103EB0000411D9F8001041F48051C9F80010D9F864
:103EC000001041F48041C9F80010D9F8001041F009
:103ED0001001C9F80010D9F80410C9F80410D9F875
:103EE000041041F00F014160416841F48C41416090
:103EF000D0F80411C0F80411D0F8041141F00F01FA
:103F0000C0F80411D0F8041141F47061C0F8041134
:103F1000016841F001010160322009F087F9D320E6
:103F200002F0F4FB02F082F9A88002F07FF9A88089
:103F300002F07CF94FF6FF7202EA0020A88002F03E
:103F400075F9A98849F241370843A880B84248D09A
:103F5000D42002F0DBFB02F069F9A88002F066F9D8
:103F6000A88002F063F902EA0020A88002F05EF95E
:103F7000A9880843A880B04233D04FF45A4002F0D9
:103F8000C5FB02F053F9A8804FF45B4002F0BEFB82
:103F900002F04CF902EA0020A8804FF45C4002F0E5
:103FA000B5FB02F043F9A9880843A880B0F5004F9B
:103FB0007DD0A04215D0A12002F0A8FB02F036F976
:103FC000A88002F033F902EA0020A88002F02EF95E
:103FD000A9880843A0F5AE41A880613901D1A5F8B0
:103FE0000480A98861A0FCF777FAA888B8427DD13F
:103FF000CF2002F08BFB002002F07CFBC12002F0FE
:1040000079FB302002F076FBED2002F07FFB64208C
:1040100002F070FB032002F06DFB122002F06AFB3D
:10402000812002F067FBE82002F070FB852002F09F
:1040300061FB102002F05EFB7A2002F05BFBCB20DC
:1040400002F064FB392002F055FB2C2002F052FBF9
:10405000002002F04FFB342002F04CFB022002F063
:1040600049FBF72002F052FB202002F043FBEA203C
:1040700002F04CFB002002F03DFB002002F03AFB76
:10408000C02002F043FB1B2002F034FBC12002F0F1
:104090003DFB012002F02EFBC52002F037FB302053
:1040A00002F028FB302002F025FBC72000E0CAE028
:1040B00002F02CFBB72002F01DFB362002F026FB9D
:1040C000482002F017FB3A2002F020FB552002F0B6
:1040D00011FBB12002F01AFB002002F00BFB1A20AA
:1040E00002F008FBB62002F011FB00E0ADE00A2070
:1040F00002F000FBA22002F0FDFAF22002F006FB23
:10410000002002F0F7FA262002F000FB012002F066
:10411000F1FAE02002F0FAFA0F2002F0EBFA2A207E
:1041200002F0E8FA282002F0E5FA082002F0E2FAAC
:104130000E2002F0DFFA082002F0DCFA542002F030
:10414000D9FAA92002F0D6FA432002F0D3FA0A20C5
:1041500002F0D0FA0F2011E0340300203038024082
:1041600000040240000C024000100240204C434476
:104170002049443A25780D0A0000000002F0BAFAFE
:10418000002002F0B7FA002002F0B4FA002002F09A
:10419000B1FA002002F0AEFAE12002F0B7FA0020F6
:1041A00002F0A8FA152002F0A5FA172002F0A2FAF0
:1041B000072002F09FFA112002F09CFA062002F07C
:1041C00099FA2B2002F096FA562002F093FA3C203E
:1041D00002F090FA052002F08DFA102002F08AFA1F
:1041E0000F2002F087FA3F2002F084FA3F2002F00D
:1041F00081FA0F2002F07EFA2B2002F087FA0020CD
:1042000002F078FA002002F075FA012002F072FA4A
:104210003F2002F06FFA2A2002F078FA002002F024
:1042200069FA002002F066FA002002F063FAEF203B
:1042300002F060FA112002F069FA782008F0F6FF27
:10424000292001F0FCBEAC80CBE6B0427ED1ED204F
:1042500002F05CFA012002F04DFAFE2002F04AFA68
:10426000EE2002F053FADE2002F044FA212002F0A0
:1042700041FAF12002F04AFA012002F03BFADF2075
:1042800002F044FA102002F035FAC42002F03EFA9F
:104290008F2002F02FFAC62002F038FA002002F038
:1042A00029FAE22002F026FAE22002F023FAE220C4
:1042B00002F020FABF2002F029FAAA2002F01AFA2E
:1042C000B02002F023FA0D2002F014FA002002F0D0
:1042D00011FA0D2002F00EFA002002F00BFA112064
:1042E00002F008FA002002F005FA192002F002FAA2
:1042F000002002F0FFF9212002F0FCF9002002F07A
:10430000F9F92D2002F0F6F9002002F0F3F93D2032
:1043100002F0F0F9002002F0EDF95D2002F0EAF978
:10432000002002F0E7F95D2002F0E4F9002002F03D
:10433000E1F9B12002F0EAF9802002F0DBF9002077
:1043400002F0D8F98B2002F0D5F900E0FDE300205F
:1043500002F0D0F9962002F0CDF9002002F0CAF95F
:10436000B22002F0D3F9002002F0C4F9002002F0DC
:10437000C1F9022002F0BEF9002002F0BBF90320CF
:1043800002F0B8F9002002F0B5F9B32002F0BEF94E
:10439000002002F0AFF9002002F0ACF9002002F09A
:1043A000A9F9002002F0A6F9002002F0A3F90020EC
:1043B00002F0A0F9002002F09DF9002002F09AF925
:1043C000002002F097F9002002F094F9002002F09A
:1043D00091F9002002F08EF9002002F08BF9002004
:1043E00002F088F9002002F085F9002002F082F93D
:1043F000002002F07FF9002002F07CF9002002F09A
:1044000079F9002002F076F9002002F073F900201B
:1044100002F070F9002002F06DF9002002F06AF954
:10442000B42002F073F98B2002F064F9002002F04E
:1044300061F9962002F05EF9002002F05BF9A120FC
:1044400002F058F9002002F055F9B52002F05EF9AB
:10445000022002F04FF9002002F04CF9032002F094
:1044600049F9002002F046F9042002F043F9002047
:1044700002F040F9B62002F049F9002002F03AF9C2
:10448000002002F037F9B72002F040F9002002F0D6
:1044900031F9002002F02EF93F2002F02BF9002024
:1044A00002F028F95E2002F025F9002002F022F93E
:1044B000642002F01FF9002002F01CF98C2002F0A9
:1044C00019F9002002F016F9AC2002F013F90020CF
:1044D00002F010F9DC2002F00DF9002002F00AF9D8
:1044E000702002F007F9002002F004F9902002F099
:1044F00001F9002002F0FEF8EB2002F0FBF80020AA
:1045000002F0F8F8DC2002F0F5F8002002F0F2F8F2
:10451000B82002F0FBF8002002F0ECF8002002F0D6
:10452000E9F8002002F0E6F8002002F0E3F80020AD
:1045300002F0E0F8002002F0DDF8002002F0DAF8E6
:10454000002002F0D7F8BA2002F0E0F8242002F0B0
:10455000D1F8002002F0CEF8002002F0CBF80020C5
:1045600002F0C8F8C12002F0D1F8202002F0C2F811
:10457000002002F0BFF8542002F0BCF8002002F046
:10458000B9F8FF2002F0B6F8002002F0B3F8C2201C
:1045900002F0BCF80A2002F0ADF8002002F0AAF800
:1045A000042002F0A7F8002002F0A4F8C32002F0D3
:1045B000ADF83C2002F09EF8002002F09BF83A2073
:1045C00002F098F8002002F095F8392002F092F8F5
:1045D000002002F08FF8372002F08CF8002002F063
:1045E00089F83C2002F086F8002002F083F836209B
:1045F00002F080F8002002F07DF8322002F07AF814
:10460000002002F077F82F2002F074F8002002F06A
:1046100071F82C2002F06EF8002002F06BF82920CF
:1046200002F068F8002002F065F8262002F062F837
:10463000002002F05FF8242002F05CF8002002F075
:1046400059F8242002F056F8002002F053F82320F5
:1046500002F050F8002002F04DF83C2002F04AF839
:10466000002002F047F8362002F044F8002002F063
:1046700041F8322002F03EF8002002F03BF82F20F3
:1046800002F038F8002002F035F82C2002F032F861
:10469000002002F02FF8292002F02CF8002002F070
:1046A00029F8262002F026F8002002F023F8242022
:1046B00002F020F8002002F01DF8242002F01AF881
:1046C000002002F017F8232002F014F8002002F076
:1046D00011F8C42002F01AF8622002F00BF8002052
:1046E00002F008F8052002F005F8002002F002F8B8
:1046F000842001F0FFFF002001F0FCFFF02001F01A
:10470000F9FF002001F0F6FF182001F0F3FF002070
:1047100001F0F0FFA42001F0EDFF002001F0EAFF1E
:10472000182001F0E7FF002001F0E4FF502001F025
:10473000E1FF002001F0DEFF0C2001F0DBFF002094
:1047400001F0D8FF172001F0D5FF002001F0D2FFC3
:10475000952001F0CFFF002001F0CCFFF32001F005
:10476000C9FF002001F0C6FFE62001F0C3FF0020D2
:1047700001F0C0FFC52001F0C9FF322001F0BAFFEF
:10478000002001F0B7FF442001F0B4FF002001F049
:10479000B1FF652001F0AEFF002001F0ABFF7620F5
:1047A00001F0A8FF002001F0A5FF882001F0A2FF82
:1047B000002001F09FFFC62001F0A8FF202001F09B
:1047C00099FF002001F096FF172001F093FF0020D1
:1047D00001F090FF012001F08DFF002001F08AFF21
:1047E000C72001F093FF002001F084FF002001F0BA
:1047F00081FF002001F07EFF002001F07BFFC82038
:1048000001F084FF002001F075FF002001F072FF2D
:10481000002001F06FFF002001F06CFFC92001F0C3
:1048200075FF002001F066FF002001F063FF00200B
:1048300001F060FF002001F05DFF002001F05AFF51
:10484000002001F057FF002001F054FF002001F08C
:1048500051FF002001F04EFF002001F04BFF00202F
:1048600001F048FF002001F045FF002001F042FF69
:10487000002001F03FFF002001F03CFF002001F08C
:1048800039FFE02001F042FF162001F033FF002045
:1048900001F030FF1C2001F02DFF002001F02AFF65
:1048A000212001F027FF002001F024FF362001F035
:1048B00021FF002001F01EFF462001F01BFF002019
:1048C00001F018FF522001F015FF002001F012FF47
:1048D000642001F00FFF002001F00CFF7A2001F0AE
:1048E00009FF002001F006FF8B2001F003FF0020EC
:1048F00001F000FF992001F0FDFE002001F0FAFE1A
:10490000A82001F0F7FE002001F0F4FEB92001F02C
:10491000F1FE002001F0EEFEC42001F0EBFE0020CD
:1049200001F0E8FECA2001F0E5FE002001F0E2FE01
:10493000D22001F0DFFE002001F0DCFED92001F0E2
:10494000D9FE002001F0D6FEE02001F0D3FE0020C9
:1049500001F0D0FEF32001F0CDFE002001F0CAFEF0
:10496000E12001F0D3FE162001F0C4FE002001F08A
:10497000C1FE1C2001F0BEFE002001F0BBFE222083
:1049800001F0B8FE002001F0B5FE362001F0B2FEC5
:10499000002001F0AFFE452001F0ACFE002001F048
:1049A000A9FE522001F0A6FE002001F0A3FE642023
:1049B00001F0A0FE002001F09DFE7A2001F09AFE99
:1049C000002001F097FE8B2001F094FE002001F002
:1049D00091FE992001F08EFE002001F08BFEA820B0
:1049E00001F088FE002001F085FEB92001F082FE72
:1049F000002001F07FFEC42001F07CFE002001F0C9
:104A000079FECA2001F076FE002001F073FED2206C
:104A100001F070FE002001F06DFED82001F06AFE6A
:104A2000002001F067FEE02001F064FE002001F0AC
:104A300061FEF32001F05EFE002001F05BFEE2204B
:104A400001F064FE052001F055FE002001F052FE49
:104A50000B2001F04FFE002001F04CFE1B2001F066
:104A600049FE002001F046FE342001F043FE002004
:104A700001F040FE442001F03DFE002001F03AFE2E
:104A80004F2001F037FE002001F034FE612001F0DC
:104A900031FE002001F02EFE792001F02BFE0020D7
:104AA00001F028FE882001F025FE002001F022FE02
:104AB000972001F01FFE002001F01CFEA62001F04F
:104AC00019FE002001F016FEB72001F013FE0020B1
:104AD00001F010FEC22001F00DFE002001F00AFEE0
:104AE000C72001F007FE002001F004FED12001F0F4
:104AF00001FE002001F0FEFDD62001F0FBFD0020AC
:104B000001F0F8FDDD2001F0F5FD002001F0F2FDDF
:104B1000F32001F0EFFD002001F0ECFDE32001F0B7
:104B2000F5FD052001F0E6FD002001F0E3FD0A207F
:104B300001F0E0FD002001F0DDFD1C2001F0DAFDB8
:104B4000002001F0D7FD332000E0FAE201F0D2FDB1
:104B5000002001F0CFFD442001F0CCFD002001F049
:104B6000C9FD502001F0C6FD002001F0C3FD622008
:104B700001F0C0FD002001F0BDFD782001F0BAFD7C
:104B8000002001F0B7FD882001F0B4FD002001F005
:104B9000B1FD972001F0AEFD002001F0ABFDA62095
:104BA00001F0A8FD002001F0A5FDB72001F0A2FD55
:104BB000002001F09FFDC22001F09CFD002001F0CB
:104BC00099FDC72001F096FD002001F093FDD12052
:104BD00001F090FD002001F08DFDD52001F08AFD4F
:104BE000002001F087FDDD2001F084FD002001F0B0
:104BF00081FDF32001F07EFD002001F07BFDE4202B
:104C000001F084FD012001F075FD002001F072FD2E
:104C1000012001F06FFD002001F06CFD022001F089
:104C200069FD002001F066FD2A2001F063FD0020EF
:104C300001F060FD3C2001F05DFD002001F05AFD17
:104C40004B2001F057FD002001F054FD5D2001F0E4
:104C500051FD002001F04EFD742001F04BFD0020BD
:104C600001F048FD842001F045FD002001F042FDE7
:104C7000932001F03FFD002001F03CFDA22001F057
:104C800039FD002001F036FDB32001F033FD002096
:104C900001F030FDBE2001F02DFD002001F02AFDC5
:104CA000C42001F027FD002001F024FDCD2001F0FB
:104CB00021FD002001F01EFDD32001F01BFD00208E
:104CC00001F018FDDD2001F015FD002001F012FDBE
:104CD000F32001F00FFD002001F00CFDE52001F0B4
:104CE00015FD002001F006FD002001F003FD00206D
:104CF00001F000FD002001F0FDFC022001F0FAFCB3
:104D0000002001F0F7FC292001F0F4FC002001F064
:104D1000F1FC3C2001F0EEFC002001F0EBFC4B200C
:104D200001F0E8FC002001F0E5FC5D2001F0E2FC70
:104D3000002001F0DFFC742001F0DCFC002001F019
:104D4000D9FC842001F0D6FC002001F0D3FC932094
:104D500001F0D0FC002001F0CDFCA22001F0CAFC43
:104D6000002001F0C7FCB32001F0C4FC002001F0DA
:104D7000C1FCBE2001F0BEFC002001F0BBFCC42041
:104D800001F0B8FC002001F0B5FCCD2001F0B2FC30
:104D9000002001F0AFFCD32001F0ACFC002001F0BA
:104DA000A9FCDC2001F0A6FC002001F0A3FCF3200C
:104DB00001F0A0FC002001F09DFCE62001F0A6FC23
:104DC000112001F097FC002001F094FC342001F048
:104DD00091FC002001F08EFC562001F08BFC00209D
:104DE00001F088FC762001F085FC002001F082FCB7
:104DF000772001F07FFC002001F07CFC662001F0B0
:104E000079FC002001F076FC882001F073FC002082
:104E100001F070FC992001F06DFC002001F06AFCAB
:104E2000BB2001F067FC002001F064FC992001F038
:104E300061FC002001F05EFC662001F05BFC0020BC
:104E400001F058FC552001F055FC002001F052FC07
:104E5000552001F04FFC002001F04CFC452001F0F2
:104E600049FC002001F046FC432001F043FC0020F7
:104E700001F040FC442001F03DFC002001F03AFC30
:104E8000E72001F043FC322001F034FC002001F067
:104E900031FC552001F02EFC002001F02BFC762087
:104EA00001F028FC002001F025FC662001F022FC26
:104EB000002001F01FFC672001F01CFC002001F025
:104EC00019FC672001F016FC002001F013FC87207C
:104ED00001F010FC002001F00DFC992001F00AFC0B
:104EE000002001F007FCBB2001F004FC002001F0D1
:104EF00001FC992001F0FEFB002001F0FBFB772074
:104F000001F0F8FB002001F0F5FB442001F0F2FB7A
:104F1000002001F0EFFB562001F0ECFB002001F037
:104F2000E9FB232001F0E6FB002001F0E3FB332046
:104F300001F0E0FB002001F0DDFB452001F0DAFB91
:104F4000002001F0D7FBE82001F0E0FB002001F099
:104F5000D1FB002001F0CEFB992001F0CBFB00201B
:104F600001F0C8FB872001F0C5FB002001F0C2FB67
:104F7000882001F0BFFB002001F0BCFB772001F08E
:104F8000B9FB002001F0B6FB662001F0B3FB002066
:104F900001F0B0FB882001F0ADFB002001F0AAFB7E
:104FA000AA2001F0A7FB002001F0A4FBBB2001F028
:104FB000A1FB002001F09EFB992001F09BFB00204B
:104FC00001F098FB662001F095FB002001F092FBB8
:104FD000552001F08FFB002001F08CFB552001F0E3
:104FE00089FB002001F086FB442001F083FB0020B8
:104FF00001F080FB442001F07DFB002001F07AFBF2
:10500000552001F077FB002001F074FBE92001F04E
:105010007DFBAA2001F06EFB002001F06BFB00205D
:1050200001F068FB002001F065FB002001F06EFB41
:10503000AA2001F05FFBCF2001F068FB002001F007
:1050400059FB002001F056FB002001F053FB00202B
:1050500001F050FB002001F04DFB002001F04AFB65
:10506000002001F047FB002001F044FB002001F08C
:1050700041FB002001F03EFB002001F03BFB002043
:1050800001F038FB002001F035FB002001F032FB7D
:10509000002001F02FFB002001F02CFB002001F08C
:1050A00029FBF02001F032FB002001F023FB50200F
:1050B00001F020FB002001F01DFB002001F01AFB95
:1050C000002001F017FBF32001F020FB002001F08D
:1050D00011FBF92001F01AFB062001F00BFB102058
:1050E00001F008FB292001F005FB002001F002FB84
:1050F0003A2001F00BFB552001F0FCFA112001F0E1
:1051000005FB642008F092F8292001F0FFFA352011
:1051100001F0FCFA002001F0EDFA512001F0F6FA5E
:10512000FF2001F0E7FA532001F0F0FA2C2001F003
:10513000E1FA552001F0EAFA822001F0DBFA2C2096
:10514000FDE3A0427ED14FF470435521184601F093
:10515000F3FA4FF20107AA21384601F0EDFA4FF2B7
:10516000020A5221504601F0E7FA0821B81C01F06A
:10517000E3FA0121F81C01F0DFFA0D214FF4304071
:1051800001F0DAFA0D214BF2010001F0D5FA0D2100
:105190004BF2020001F0D0FA34214FF4364001F016
:1051A000CBFA34214BF2016001F0C6FA34214BF204
:1051B000026001F0C1FA0D214FF4314001F0BCFA58
:1051C0000D214BF2011001F0B7FA0D214BF2021044
:1051D00001F0B2FA34214FF4374001F0ADFA342136
:1051E0004BF2017001F0A8FA34214BF2027001F089
:1051F000A3FA00214FF4324001F09EFA00214BF255
:10520000012001F099FA00214BF2022001F094FAFA
:1052100024214FF4384001F08FFA24214BF601008D
:1052200001F08AFA24214BF6020001F085FA0121EF
:105230004FF43F4001F080FA0F214FF4334001F06A
:105240007BFA00E0FEE30F214BF2013001F074FA2B
:105250000F214BF2023001F06FFA34214FF4394044
:1052600001F06AFA34214BF6011001F065FA34219D
:105270004BF6021001F060FA08214FF4354001F0BE
:105280005BFA08214BF2015001F056FA08214BF26B
:10529000025001F051FA03214FF4424001F04CFA60
:1052A00024214FF43A4001F047FA24214BF6012023
:1052B00001F042FA24214BF6022001F03DFA0021D0
:1052C0004FF43C4001F038FA78214BF6014001F0F0
:1052D00033FA00214BF6024001F02EFA00214FF480
:1052E0003D4001F029FA78214BF6015001F024FAF3
:1052F00000214BF6025001F01FFA00214FF43E400E
:1053000001F01AFA64214BF6016001F015FA002150
:105310004FF4514001F010FA33214DF2011001F029
:105320000BFA00214DF2021001F006FA34214DF281
:10533000031001F001FA00214DF2041001F0FCF914
:105340003A214DF2051001F0F7F900214DF2061057
:1053500001F0F2F94A214DF2071001F0EDF90021B8
:105360004DF2081001F0E8F95C214DF2091001F04E
:10537000E3F900214DF20A1001F0DEF981214DF22E
:105380000B1001F0D9F900214DF20C1001F0D4F905
:10539000A6214DF20D1001F0CFF900214DF20E10B3
:1053A00001F0CAF9E5214DF20F1001F0C5F9012114
:1053B0004DF2101001F0C0F913214DF2111001F05F
:1053C000BBF901214DF2121001F0B6F954214DF252
:1053D000131001F0B1F901214DF2141001F0ACF9F4
:1053E00082214DF2151001F0A7F901214DF216109E
:1053F00001F0A2F9CA214DF2171001F09DF9022126
:105400004DF2181001F098F900214DF2191001F039
:1054100093F902214DF21A1001F08EF901214DF29B
:105420001B1001F089F902214DF21C1001F084F9E2
:1054300034214DF21D1001F07FF902214DF21E10B2
:1054400001F07AF967214DF21F1001F075F9022180
:105450004DF2201001F070F984214DF2211001F07D
:105460006BF902214DF2221001F066F9A4214DF2F0
:10547000231001F061F902214DF2241001F05CF9D2
:10548000B7214DF2251001F057F902214DF22610F7
:1054900001F052F9CF214DF2271001F04DF9022110
:1054A0004DF2281001F048F9DE214DF2291001F0EB
:1054B00043F902214DF22A1001F03EF9F2214DF29A
:1054C0002B1001F039F902214DF22C1001F034F9C2
:1054D000FE214DF22D1001F02FF903214DF22E1077
:1054E00001F02AF910214DF22F1001F025F90321C6
:1054F0004DF2301001F020F933214DF2311001F05E
:105500001BF903214DF2321001F016F96D214DF215
:10551000331001F011F900214FF4524001F00CF961
:1055200033214DF2012001F007F900214DF2022054
:1055300001F002F934214DF2032001F0FDF80021C1
:105540004DF2042001F0F8F83A214DF2052001F067
:10555000F3F800214DF2062001F0EEF84A214DF259
:10556000072001F0E9F800214DF2082001F0E4F8ED
:105570005C214DF2092001F0DFF800214DF20A20F4
:1055800001F0DAF881214DF20B2001F0D5F800216D
:105590004DF20C2001F0D0F8A6214DF20D2001F0C3
:1055A000CBF800214DF20E2001F0C6F8E5214DF2B6
:1055B0000F2001F0C1F801214DF2102001F0BCF8DC
:1055C00013214DF2112001F0B7F801214DF2122004
:1055D00001F0B2F854214DF2132001F0ADF8012191
:1055E0004DF2142001F0A8F882214DF2152001F0AF
:1055F000A3F801214DF2162001F09EF8CA214DF2C8
:10560000172001F099F802214DF2182001F094F8CA
:1056100000214DF2192001F08FF802214DF21A20DD
:1056200001F08AF801214DF21B2001F085F80221DA
:105630004DF21C2001F080F834214DF21D2001F0C4
:105640007BF802214DF21E2001F076F867214DF221
:105650001F2001F071F802214DF2202001F06CF8BA
:1056600084214DF2212001F067F802214DF2222021
:1056700001F062F8A4214DF2232001F05DF802212F
:105680004DF2242001F058F8B7214DF2252001F009
:1056900053F802214DF2262001F04EF8CF214DF2B1
:1056A000272001F049F802214DF2282001F044F8AA
:1056B000DE214DF2292001F03FF802214DF22A208F
:1056C00001F03AF8F2214DF22B2001F035F80221D9
:1056D0004DF22C2001F030F8FE214DF22D2001F08A
:1056E0002BF803214DF22E2001F026F810214DF267
:1056F0002F2001F021F803214DF2302001F01CF899
:1057000033214DF2312001F017F803214DF2322000
:1057100001F012F86D214DF2332001F00DF8002157
:105720004FF4534001F008F833214DF2013001F0FD
:1057300003F800214DF2023000F0FEFF34214DF25B
:10574000033000F0F9FF00214DF2043000F0F4FFC7
:105750003A214DF2053000F0EFFF00214DF2063006
:1057600000F0EAFF4A214DF2073000F0E5FF00218A
:105770004DF2083000F0E0FF5C214DF2093000F0FE
:10578000DBFF00214DF20A3000F0D6FF81214DF2FF
:105790000B3000F0D1FF00214DF20C3000F0CCFFB7
:1057A000A6214DF20D3000F0C7FF00214DF20E3062
:1057B00000F0C2FFE5214DF20F3000F0BDFF0121E6
:1057C0004DF2103000F0B8FF13214DF2113000F00F
:1057D000B3FF01214DF2123000F0AEFF54214DF223
:1057E000133000F0A9FF01214DF2143000F0A4FFA6
:1057F00082214DF2153000F09FFF01214DF216304D
:1058000000F09AFFCA214DF2173000F095FF0221F7
:105810004DF2183000F090FF00214DF2193000F0E9
:105820008BFF02214DF21A3000F086FF01214DF26C
:105830001B3000F081FF02214DF21C3000F07CFF94
:1058400034214DF21D3000F077FF02214DF21E3061
:1058500000F072FF67214DF21F3000F06DFF022152
:105860004DF2203000F068FF84214DF2213000F02D
:1058700063FF02214DF2223000F05EFFA4214DF2C1
:10588000233000F059FF02214DF2243000F054FF84
:10589000B7214DF2253000F04FFF02214DF22630A6
:1058A00000F04AFFCF214DF2273000F045FF0221E2
:1058B0004DF2283000F040FFDE214DF2293000F09B
:1058C0003BFF02214DF22A3000F036FFF2214DF26B
:1058D0002B3000F031FF02214DF22C3000F02CFF74
:1058E000FE214DF22D3000F027FF03214DF22E3026
:1058F00000F022FF10214DF22F3000F01DFF032198
:105900004DF2303000F018FF33214DF2313000F00D
:1059100013FF03214DF2323000F00EFF6D214DF2E6
:10592000333000F009FF00214FF4544000F004FF31
:1059300033214DF2014000F0FFFE002100E07EE344
:105940004DF2024000F0F8FE34214DF2034000F029
:10595000F3FE00214DF2044000F0EEFE3A214DF23C
:10596000054000F0E9FE00214DF2064000F0E4FEA3
:105970004A214DF2074000F0DFFE00214DF20840C1
:1059800000F0DAFE5C214DF2094000F0D5FE002166
:105990004DF20A4000F0D0FE81214DF20B4000F0A4
:1059A000CBFE00214DF20C4000F0C6FEA6214DF2C8
:1059B0000D4000F0C1FE00214DF20E4000F0BCFE93
:1059C000E5214DF20F4000F0B7FE01214DF21040ED
:1059D00000F0B2FE13214DF2114000F0ADFE0121A6
:1059E0004DF2124000F0A8FE54214DF2134000F099
:1059F000A3FE01214DF2144000F09EFE82214DF2E3
:105A0000154000F099FE01214DF2164000F094FE81
:105A1000CA214DF2174000F08FFE02214DF21840CE
:105A200000F08AFE00214DF2194000F085FE0221AF
:105A30004DF21A4000F080FE01214DF21B4000F0B3
:105A40007BFE00E0FEE202214DF21C4000F074FEFD
:105A500034214DF21D4000F06FFE02214DF21E4038
:105A600000F06AFE67214DF21F4000F065FE022142
:105A70004DF2204000F060FE84214DF2214000F004
:105A80005BFE02214DF2224000F056FEA4214DF2B1
:105A9000234000F051FE02214DF2244000F04CFE64
:105AA000B7214DF2254000F047FE02214DF226407D
:105AB00000F042FECF214DF2274000F03DFE0221D2
:105AC0004DF2284000F038FEDE214DF2294000F072
:105AD00033FE02214DF22A4000F02EFEF2214DF25B
